:020000040800F2
:10000000982D0020210200084D290008571F0008E4
:10001000DD27000823060008393000080000000032
:10002000000000000000000000000000890100083E
:100030006706000800000000CD010008652A0008DE
:100040003B0200083B0200083B0200083B0200089C
:100050003B0200083B0200083B0200083B0200088C
:100060003B0200083B0200083B0200083106000882
:100070003B0200083B0200083B0200083B0200086C
:100080003B0200083B0200083B0200083B0200085C
:100090003B0200083B0200083B0200083B0200084C
:1000A0003B020008F12A00083B0200083B0200085E
:1000B0003B0200083B0200083B0200083B0200082C
:1000C0003B0200083B0200083B0200083B0200081C
:1000D0003B0200083B0200082D3000083B020008EC
:1000E0003B0200083B0200083B02000800F002F857
:1000F00000F03AF80AA090E8000C82448344AAF188
:100100000107DA4501D100F02FF8AFF2090EBAE885
:100110000F0013F0010F18BFFB1A43F0010318473B
:100120003094000050940000103A24BF78C878C181
:10013000FAD8520724BF30C830C144BF04680C60ED
:10014000704700000023002400250026103A28BF35
:1001500078C1FBD8520728BF30C148BF0B60704739
:100160001FB51FBD10B510BD00F020FA1146FFF7F6
:10017000F7FF04F051FD00F03EFA03B4FFF7F2FF81
:1001800003BC00F041FA0000224B19680868B0E88F
:10019000F00F80F30988BFF36F8F4FF0000080F3FA
:1001A00011884EF00D0E70470000000006480068F0
:1001B000006880F3088862B661B6BFF34F8FBFF363
:1001C0006F8F00DF00BF00BF08ED00E0EFF3098094
:1001D000BFF36F8F0F4B1A6820E9F00F106008B55E
:1001E0004FF0500080F31188BFF34F8FBFF36F8F34
:1001F00006F040FC4FF0000080F31188BDE8084095
:1002000019680868B0E8F00F80F30988BFF36F8FB2
:10021000704700BF1C000020EFF30580704700000E
:100220000948804709480047FEE7FEE7FEE7FEE78A
:10023000FEE7FEE7FEE7FEE7FEE7FEE704480549C6
:10024000054A064B70470000EF2A0008ED00000841
:1002500098270020982D0020982900209829002018
:1002600010B54C1084EA530404D54042C1F100019A
:1002700038BF491E1B4204D55242C3F1000338BFA8
:100280005B1E00F0B4F814F0804F04D04042C1F17E
:10029000000138BF491E14F0004F04D05242C3F190
:1002A000000338BF5B1E10BD40EA010310B59B0779
:1002B0000FD1042A0DD310C808C9121F9C42F8D0D0
:1002C00020BA19BA884201D9012010BD4FF0FF3081
:1002D00010BD1AB1D30703D0521C07E0002010BD97
:1002E00010F8013B11F8014B1B1B07D110F8013B23
:1002F00011F8014B1B1B01D1921EF1D1184610BD04
:10030000032A40F2308010F0030C00F0158011F841
:10031000013BBCF1020F624498BF11F801CB00F819
:10032000013B38BF11F8013BA2F1040298BF00F86D
:1003300001CB38BF00F8013B11F0030300F0D98076
:10034000083AC0F0088051F8043B083A51F804CB51
:10035000A0E80810F5E7121D5CBF51F8043B40F817
:10036000043BAFF30080D20724BF11F8013B11F822
:1003700001CB48BF11F8012B24BF00F8013B00F866
:1003800001CB48BF00F8012B704702F0FF0343EA9E
:10039000032242EA024200F0E0B84FF0000200B54A
:1003A000134694469646203922BFA0E80C50A0E898
:1003B0000C50B1F12001BFF4F7AF090728BFA0E846
:1003C0000C5048BF0CC05DF804EB890028BF40F812
:1003D000042B08BF704748BF20F8022B11F0804F54
:1003E00018BF00F8012B704770477047704753EAF9
:1003F000020C00F069802DE9F04B4FF00006002B55
:100400001FBFB3FA83F503FA05F424FA05F65E403C
:1004100012BF1643B2FA82F502FA05F4C5F12005BF
:100420001EBF22FA05FC44EA0C04203556EA044CAF
:100430004FEA144418BF641C4FF000084FF0000945
:10044000904271EB030C39D3002919BFB1FA81F73F
:1004500001FA07F6B0FA80F700FA07F6C7F12007AD
:100460001EBF20FA07FC46EA0C062037B6FBF4FC58
:10047000A7EB0507103F07F01F0BCBF120060CFA86
:100480000BFB2CFA06F644BFB3460026202FA4BF70
:100490005E464FF0000B5BEA060C08BF4FF0010B05
:1004A00019EB0B09ABFB027C48EB0608C01B06FBF3
:1004B00002CC0BFB03CC71EB0C01C1E70B460246EF
:1004C00041464846BDE8F08B13B54FF000004FF0B1
:1004D0000001AFF30080BDE81C40704710B500F08C
:1004E0005DF8006810BD10B5044600F057F80460D0
:1004F00010BD10B5203AC0F00B80B1E81850203A7A
:10050000A0E81850B1E81850A0E81850BFF4F5AFB3
:100510005FEA027C24BFB1E81850A0E8185044BF3D
:1005200018C918C0BDE810405FEA827C24BF51F8AA
:10053000043B40F8043B08BF7047D20728BF31F89E
:10054000023B48BF11F8012B28BF20F8023B48BFEF
:1005500000F8012B70474FF000020429C0F0128010
:1005600010F0030C3FF41BAFCCF1040CBCF1020FF4
:1005700018BF00F8012BA8BF20F8022BA1EB0C013B
:10058000FFF70DBF5FEAC17C24BF00F8012B00F824
:10059000012B48BF00F8012B70470000004870474E
:1005A0003427002000487047342700207546FFF7A5
:1005B000F9FFAE4605006946534620F00700854620
:1005C00018B020B5FFF73AFEBDE820404FF0000616
:1005D0004FF000074FF000084FF0000B21F007012B
:1005E000AC46ACE8C009ACE8C009ACE8C009ACE86E
:1005F000C0098D46704710B50446AFF30080204611
:10060000BDE81040FFF7B9BD01491820ABBEFEE7B9
:1006100026000200704703F08DFA0A2005F054FA14
:10062000F9E7FEE703F04EFA0A2005F04DFAF9E784
:10063000014800F00DB90000C801002030B590F865
:1006400040500124AC40C56B6C6004686360436833
:10065000102B036803D099600068C26030BD9A60B7
:100660000068C16030BD704772B6FEE700F00CBB99
:1006700005F06EFF0A2005F027FAF9E70949002086
:10068000094A48618861C86108624862B423886287
:10069000D3701371282353719071D0711072087444
:1006A000704700005C1D0020D4000020F8B52E4DDE
:1006B0002E4C2868E8BB04F12801002091E80E00C8
:1006C00004F1340604F5557704F2746C46F82010F2
:1006D00047F820204CF82030401CC828F6DB23487F
:1006E0004FF07C56103000F10C0300903246C821C8
:1006F000243003F04FF91D483246143000F10C034A
:100700000090C82100F5507003F044F917483246B4
:10071000183000F10C030090C82100F25C6003F077
:1007200039F92169A06A07F005FFA0626169E06AF2
:1007300000E009E007F0FEFEE062A169206B07F02F
:10074000F9FE206301202860E169A06A07F0F2FE4B
:10075000A062216AE06A07F0EDFEE062616A206B48
:1007600007F0E8FE2063F8BDEC000020A01D00208B
:1007700010B590F821100022022905D004218163D0
:1007800080F82020012010BD01680B6823F00E03C3
:100790000B6001680B6823F001030B6090F8403098
:1007A000C46B012101FA03F3636080F8211080F823
:1007B0002020104610BD000010B590F82110002434
:1007C000022903D00421816301243DE001680A6805
:1007D00022F00E020A6001680A6822F001020A6033
:1007E0001A4A0168914201D1012121E0174A1432CD
:1007F000914201D110211BE0144A2832914201D1CB
:10080000891515E0114A3C32914201D189140FE05B
:100810000E4A5032914202D14FF4803108E00B4A27
:100820006432914202D14FF4801101E04FF08071A7
:10083000064A083A5160012180F82110002180F811
:100840002010416B01B18847204610BD08000240CE
:100850002DE9F05FC16B0C6801680B68D0F840C0EF
:10086000042202FA0CF2494DDFF824A1494E4A4F06
:10087000DFF828B1DFF828E122422CD05A072AD528
:100880000A68920603D40A6822F004020A6001682A
:10089000A94201D1042219E0514501D1402215E0BD
:1008A000B14202D14FF4806210E0B94202D14FF45C
:1008B00080420BE0594502D14FF4802206E0714599
:1008C00002D14FF4800201E04FF080622F490839D5
:1008D0004A60C16A3BE04FF0020808FA0CF818EAD7
:1008E000040F4FF000094FF0010235D05FEA837822
:1008F00032D50B689B0605D40B6823F00A030B6006
:1009000080F821200168A94201D1022219E0514555
:1009100001D1202215E0B14202D14FF4007210E063
:10092000B94202D14FF400520BE0594502D14FF4C5
:10093000003206E0714502D14FF4001201E04FF0A1
:100940000072124908394A6080F82090816A0029B3
:100950001AD0BDE8F05F0847082505FA0CF52542D6
:1009600012D01B0710D50B6823F00E030B6090F814
:100970004010C36B02FA01F15960826380F82120B4
:1009800080F82090016BE2E7BDE8F09F080002408C
:100990001C00024030000240440002405800024067
:1009A0006C00024030B528B308C81349142219441A
:1009B000B1FBF2F18900C1631049816302214177E3
:1009C0001A6843F6F0718A43D0E900142143D0E954
:1009D00002452C432143046921434469214384692E
:1009E00021431143196000214163012242770177BD
:1009F000084630BD012030BDF8FFFDBF00000240B9
:100A000070B5044690F82000002501280CD0012084
:100A100084F8200094F821600020012E06D084F88C
:100A200020000225284670BD022070BD022684F8F1
:100A30002160A0632068066826F001060660204653
:100A4000FFF7FCFDE06A00282068016802D041F051
:100A50000E0106E021F0040101602068016841F008
:100A60000A0101602068016841F001010160D9E7D5
:100A700070B5044600F008F90546601C02D0044831
:100A80000078044400F000F9401BA042FAD370BD86
:100A9000000000202DE9F84FDFF8B8910024A9F1FB
:100AA000040B23460F2709F1040AABF1040EC9E039
:100AB0000125A5402A40AA427DD1674ED1F804C045
:100AC000ACEB0608B44532D014DCBCF1030F3AD0CD
:100AD00009DCBCF1000F2AD0BCF1010F1CD0BCF125
:100AE000020F31D11DE0BCF1110F17D0BCF1120F74
:100AF0002AD119E0B8F5881F19D006DCB8F5803F77
:100B000015D0B8F5801F1FD111E0B8F5001F0ED029
:100B1000B8F5041F18D10AE0CB6815E0CB681B1D9F
:100B200012E0CB6808330FE0CB680C330CE08B6825
:100B30002BB1012B4FF0080303D0456104E00423DF
:100B400002E0056100E00023FF2A01D8064601E02B
:100B500000F104064FEA840501D9A5F12005D6F875
:100B6000008007FA05FC28EA0C0803FA05F548EAB4
:100B70000508C6F800804D68ED0062D5374DAE69B6
:100B800046F00106AE61AD6924F0030605F00105EB
:100B90000095334D06EB050CDCF80850A607360F20
:100BA00007FA06F825EA0805DFF8B880404503D1C2
:100BB0004FF0000817E044E0DFF8AC80404502D178
:100BC0004FF001080FE0DFF8A480404502D14FF05C
:100BD000020808E0DFF89880404502D14FF0030892
:100BE00001E04FF0040808FA06F848EA0508CCF8D6
:100BF00008804D68D9F80060ED024D4601D51643D6
:100C000000E096432E604D68DAF80060AD0255466C
:100C100001D5164300E096432E604D68DBF8006076
:100C2000AD035D4601D5164300E096432E604D6846
:100C3000DEF80060ED03754601D5164300E09643EB
:100C40002E60641C0D682A46E5407FF431AFBDE894
:100C5000F88F00000804014000001110001002404D
:100C60000000014000080140000C0140001001405C
:100C7000001401408068084000D0012070470AB18C
:100C8000016170470904FBE7014880687047000074
:100C9000000000200248816802781144816070479A
:100CA00000000020074810B5016841F01001016004
:100CB000032000F0A1F80F2000F006F800F04AF839
:100CC000002010BD0020024030B505461C4887B00A
:100CD000816941F400618161806906A900F40060C6
:100CE000009001A800F030F900F05EF91549164AAD
:100CF000B0FBF1F11548491E0260416040F2E73255
:100D00000021C0E903218160816100F049FB0400FA
:100D100012D10E4800F090FB04000DD1192000F014
:100D20003DF8102D07D200222946192000F044F882
:100D30000748056000E0012407B0204630BD0000F0
:100D40000010024040420F00002C014054020020DD
:100D5000040000200F4808B5816941F0010181615C
:100D6000816901F001010091C16941F08051C161C7
:100D7000C069002200F0805000900F21901E00F00A
:100D80001BF80548416821F0E06141F000714160C5
:100D900008BD00000010024000000140002809DBEF
:100DA00000F01F02012191404009800000F1E02085
:100DB000C0F8001170470000F0B40E4B1B680C46E1
:100DC000C3F30223C3F10705042D00D90425191D1F
:100DD000072901D2002300E0DB1E012606FA05F1F7
:100DE000491E214099409E40761E16403143F0BC7A
:100DF00002F090B90CED00E0064900F00702086827
:100E00004FF6FF03184040EA0220034A10430860EF
:100E1000704700000CED00E00000FA052DE9F047F6
:100E20000F46050061D0434E306800F00700B8421D
:100E300009D2306820F0070038433060306800F095
:100E40000700B84251D128683B4C810712D54007B2
:100E500003D5606840F4E06060602878000703D53F
:100E6000606840F4605060606068A96820F0F0003D
:100E7000084360602878C00728D06868012810D02F
:100E80002168022810D0890700292EDA616821F034
:100E9000030101436160FFF7F7FE804641F28839A4
:100EA0000DE021688903EFE78901EDE7FFF7ECFE2C
:100EB000A0EB0801494502D90320BDE8F08760682E
:100EC000696800F00C00B0EB810FEFD1306800F0E2
:100ED0000700B8420BD9306820F007003843306073
:100EE000306800F00700B84201D00120E5E728781B
:100EF000400705D56068E96820F4E0600843606059
:100F00002878000706D56068296920F4605040EA17
:100F1000C100606000F058F86168084AC1F303112D
:100F2000515CC8400649086006480068FFF7CCFEDF
:100F30000020C2E700200240001002406C87000839
:100F40000C000020040000200F2202600C4A5368AD
:100F500003F003034360536803F0F00383605368B6
:100F600003F4E063C36052684FF4E06303EAD20223
:100F700002610448006800F0070008607047000044
:100F800000100240002002400448054900684968FA
:100F9000044AC1F30221515CC84070470C00002094
:100FA000001002407C870008044805490068496831
:100FB000044AC1F3C221515CC84070470C000020B4
:100FC000001002407C8700080E4A51680E4801F06C
:100FD0000C03042B11D0082B0FD10C48C1F3834311
:100FE000C903C05C0AD55168084AC1F34041921E4A
:100FF000515C054A5043B0FBF1F070470449484347
:10100000704700000010024000127A005C87000860
:1010100000093D002DE9F84F040070D02078C04D44
:10102000C00749D06868C0F38100012807D068680C
:10103000C0F38100022809D16868C00306D528687A
:10104000800339D560680028E7D035E06068B0F5E6
:10105000803F0BD010B1B0F5A02F11D0286820F43C
:1010600080302860286820F4802002E0286840F45E
:1010700080302860606890B1FFF706FE06460AE0FF
:10108000286840F480202860F0E700BFFFF7FCFDEF
:10109000801B642873D828688003F7D50CE0FFF71D
:1010A000F3FD064605E000BFFFF7EEFD801B642858
:1010B000F0D828688003F7D420789A4E80074FF044
:1010C00001094FF0000839D5686810F00C0F07D0FF
:1010D0006868C0F38100022809D16868C00306D49B
:1010E0002868800714D52069012808D110E02069FC
:1010F000B0B1C6F80090FFF7C7FD074605E00AE16A
:10110000FFF7C2FDC01B0228C4D828688007F7D5A6
:101110002868616920F0F80040EAC10028600DE00D
:10112000C6F80080FFF7B0FD074604E0FFF7ACFD0E
:10113000C01B022823D828688007F7D4207800072E
:101140002CD57948A169D9B1C0F80090FFF79CFD72
:10115000074604E0FFF798FDC01B02280FD8686A15
:101160008007F7D571484FF4FA510068B0FBF1F0F1
:10117000009000BF0098411E0091FAD20EE080E07E
:10118000C0F80080FFF780FD074604E0FFF77CFD14
:10119000C01B022875D8686A8007F7D420784007FA
:1011A00060D5E8690027C00008D4E86940F08050A5
:1011B000E861E869012700F0805000905C48016810
:1011C000C90513D40168834641F480710160FFF7BB
:1011D0005BFD824606E000BFFFF756FDA0EB0A006C
:1011E00064284ED8DBF80000C005F5D5E06801287A
:1011F0000AD008B1052813D0286A20F0010028621F
:10120000286A20F0040002E0286A40F00100286209
:10121000E06841F2883B98B1FFF736FD82460BE06B
:10122000286A40F004002862EEE700BFFFF72CFDBB
:10123000A0EB0A0159455AD8286A8007F6D50CE078
:10124000FFF722FD824605E0FFF71EFDA0EB0A0135
:1012500059454CD8286A8007F6D41FB1E86920F0B8
:101260008050E861E06988B36968C1F381010229AF
:1012700044D00228C6F8608004D0FFF705FD04467C
:1012800038E034E0FFF700FD074604E0FFF7FCFC20
:10129000C01B02282BD828688001F7D4206AB0F53B
:1012A000803F05D16868A16820F400300843686079
:1012B000D4E908010843696821F47411084368609F
:1012C000C6F86090FFF7E0FC044606E025E000BFAA
:1012D000FFF7DAFC001B022809D828688001F7D53F
:1012E0001BE000BFFFF7D0FC001B022802D903203F
:1012F000BDE8F88F28688001F4D40EE00128F7D00B
:101300006868226A00F48031914204D1616A00F475
:101310007010884201D00120EAE70020E8E70000D1
:101320000010024000004242800442420C000020B3
:10133000007000407047704770B590F83C20012A5B
:1013400026D0012480F83C40022280F83D2003682A
:101350005A689D6822F070060A6832435A600D4B45
:1013600002689A4208D0B2F1804F05D00A4B9A42E7
:1013700002D00A4B9A4204D1496825F080031943F0
:10138000916080F83D40002180F83C10084670BD17
:10139000022070BD002C0140000400400008004005
:1013A00010B5040003D094F83D0010B107E001200F
:1013B00010BD002084F83C00204600F01FF80220F9
:1013C00084F83D00211D206801F098FB012084F87D
:1013D000460084F83E0084F83F0084F8400084F81A
:1013E000410084F8420084F8430084F8440084F803
:1013F000450084F83D00002010BD000008B50168DC
:101400000B48B1F1804F0BD00A4A914207D1C16914
:1014100041F00201C161C06900F00200009008BD06
:10142000C16941F00101C161C06900F00100F5E747
:10143000001002400004004090F83D10012901D046
:1014400001207047022180F83D100168CA6842F00F
:101450000102CA6000680B49884208D0B0F1804F91
:1014600005D00949884202D00849884204D18168E0
:1014700001F00701062903D0016841F00101016074
:1014800000207047002C014000040040000800408C
:1014900070B5044690F83C000025012817D00126BD
:1014A00084F83C60022084F83D002068826822F0C5
:1014B000770222F47F4282600868502838D00DDC21
:1014C00020284FD005DC90B3102811D14AE002202B
:1014D00070BD302846D040280AD13BE060282FD08C
:1014E00070280DD0B0F5805F03D0B0F5005F12D04A
:1014F000012584F83D60002084F83C00284670BD3A
:10150000CB68D1E90121206801F0B0FB2068816837
:1015100041F0770109E0CB68D1E90121206801F0B1
:10152000A5FB2068816841F480418160E1E719E012
:10153000CA684968206801F04DFC5021206806E027
:10154000CA684968206801F056FC6021206801F0F3
:1015500097FBCEE7CA684968206801F03BFC402150
:101560002068F4E7226801461046F0E770477047AC
:1015700070B50446006801694FF00005C94389074A
:1015800015D4C168C943890711D4E91E016101203E
:101590002077206880698007204602D0FFF7E7FFA8
:1015A00004E000F015F9204600F0D2F92577206814
:1015B0000169C943490717D4C168C943490713D40E
:1015C0006FF004010161022020772068806910F427
:1015D000407F204602D0FFF7CAFF04E000F0F8F891
:1015E000204600F0B5F9257720680169C94309074D
:1015F00016D4C168C943090712D46FF0080101610C
:10160000042020772068C0698007204602D0FFF7B9
:10161000AEFF04E000F0DCF8204600F099F92577F1
:1016200020680169C943C90617D4C168C943C906FE
:1016300013D46FF010010161082020772068C06981
:1016400010F4407F204602D0FFF791FF04E000F045
:10165000BFF8204600F07CF9257720680169C9436E
:10166000C90708D1C168C943C90704D1891E0161EE
:10167000204600F087FA20680169C943090609D4A9
:10168000C168C943090605D46FF080010161204695
:10169000FFF750FE20680169C943490609D4C168B3
:1016A000C943490605D46FF040010161204600F0AE
:1016B00073FA20680169C94389060BD4C168C9431C
:1016C000890607D46FF0200101612046BDE8704013
:1016D000FFF731BE70BD0000F0B585B0002100916C
:1016E0000191029103910168334802240325334E8E
:1016F000334FB1F1804F1ED0324A914248D18169B7
:1017000041F004018161816901F004010491816962
:1017100041F0080181618069694600F00800049089
:10172000C020CDE9000403953846FFF7B3F9CDE9B1
:10173000005403953BE0816941F0080181618169B2
:1017400001F008010491816941F00401816180691F
:10175000694600F00400049040F60840CDE900041A
:1017600003953046FFF796F94FF40040CDE90004A9
:10177000694603953846FFF78DF91348416821F40F
:10178000407141F0E06141F44071416005B0F0BD4D
:101790000E4A9142FAD1816941F008018161806964
:1017A000039400F0080004904020CDE9000469464D
:1017B0003046FFF76FF9E9E700100240000C0140E6
:1017C0000008014000040040000001400008004003
:1017D000704770B5044690F83C0000260D4601287D
:1017E0000FD0012084F83C006AB1042A1DD0082AD9
:1017F0002FD00C2A3FD00126002084F83C00304630
:1018000070BD022070BD206801F042FA2068816935
:1018100041F0080181612068816921F00401816142
:10182000206881692A69114311E0206801F058FAA3
:101830002068816941F4006181612068816921F437
:1018400080618161206881692A6941EA02218161A0
:10185000D2E7206801F070FA2068C16941F0080100
:10186000C1612068C16921F00401C1612068C169BA
:101870002A69114311E0206801F08AFA2068C169E1
:1018800041F40061C1612068C16921F48061C161D6
:101890002068C1692A6941EA0221C161ACE710B53B
:1018A000040003D094F83D0010B107E0012010BD02
:1018B000002084F83C00204600F01EF8022084F846
:1018C0003D00211D206801F019F9012084F846002F
:1018D00084F83E0084F83F0084F8400084F841001A
:1018E00084F8420084F8430084F8440084F84500FA
:1018F00084F83D00002010BD38B505460068104949
:1019000088421CD10F48C16941F00401C161C0691E
:101910000E4C00F0040000900B480021C4E90001C7
:101920008020C4E9021021616161A1612046E1616A
:10193000FFF738F808B1FEF797FE6C62656238BDB4
:10194000000800400010024008000240C8010020CA
:101950007047704710B50446022249B104290ED0E1
:10196000082913D094F84100012816D0012010BD99
:1019700094F83E000128F9D184F83E200FE094F855
:101980003F000128F2D184F83F2008E094F840009D
:101990000128EBD184F8402001E084F841200122A5
:1019A000206801F0E1F80F492068884203D1426CB9
:1019B00042F4004242642068884208D0B0F1804F6F
:1019C00005D00949884202D00849884204D181687B
:1019D00001F00701062903D0016841F0010101600F
:1019E000002010BD002C0140000400400008004011
:1019F0002DE9F04117460D0004464FF000060CD0CB
:101A0000042D11D0082D16D094F84100022819D0C9
:101A100094F84100012818D07CE094F83E00022898
:101A200010D094F83E00F5E794F83F00022809D062
:101A300094F83F00EEE794F84000022802D094F8B2
:101A40004000E7E70220BDE8F081002F62D0002BC4
:101A500060D04649464ADFF81CC102204DB1042D32
:101A600018D0082D27D084F841000C2D44D0012631
:101A700079E084F83E00606A8162606A3946C26239
:101A8000606AC0F830C02268606A3432FEF7B8FF7E
:101A900088BB21E084F83F00A06A8162A06A3946D1
:101AA000C262A06AC0F830C02268A06A3832FEF76D
:101AB000A7FF00BB15E084F84000E06A8162E06A9D
:101AC0003946C262E06AC0F830C02268E06A3C323F
:101AD000FEF796FF78B909E02068C16841F400710B
:101AE0001EE02068C16841F4806119E02068C16887
:101AF00041F4006114E00DE0206B8162206B3946F7
:101B0000C262206BC0F830C02268206B4032FEF702
:101B100077FF08B1012096E72068C16841F4805141
:101B2000C16001222946206801F01EF81249206890
:101B3000884203D1426C42F40042426420688842E9
:101B400008D0B0F1804F05D00C49884202D00C4932
:101B5000884204D1816801F00701062903D0016899
:101B600041F00101016030466DE70000832B000861
:101B7000E12B0008192C0008002C01400004004053
:101B80000008004000680349884201D1FFF782B88D
:101B900070470000002C01407047704770470000FC
:101BA000F8B5016804460868CA684B6910F00F0F61
:101BB0004FF0000559D003F0010602F49077374347
:101BC00065D0C10705D0D10503D5616C41F0010195
:101BD0006164410705D5D90703D0616C41F002016A
:101BE0006164810705D5D90703D0616C41F0040118
:101BF0006164010707D502F02001314303D0616C15
:101C000041F008016164616C00293AD0800604D576
:101C1000900602D5204601F02FF920684069616CDA
:101C2000C0F38010090700D460B3204601F0FDF82E
:101C300020684069400621D52068143050E8001F14
:101C400021F0400140E80012002AF5D1E06BA8B174
:101C50006D494163E06BFEF7AFFD002811D0E06BEA
:101C6000416B01B0BDE8F040084783060FD59306ED
:101C70000DD52046BDE8F84001F0FEB82046FFF73C
:101C80008DFFF8BD2046FFF789FF6564F8BD266B20
:101C90002023012E7CD1C6067AD5D60678D50868D1
:101CA0004868009048694FF00206400640D5E16B55
:101CB000086840680004000CE8D0A28D8242E5D993
:101CC000E085886920282DD020680C3050E8001F5E
:101CD00021F4807140E80012002AF5D12068143008
:101CE00050E8001F21F0010140E80012002AF5D160
:101CF0002068143050E8001F21F0400140E8001235
:101D0000002AF5D184F84230256320680C3050E871
:101D1000001F21F0100140E80012002AF5D1E06B0D
:101D2000FEF726FD6663A08DE18D401A81B22AE0A0
:101D3000A08DE18D401A81B2E08D0028A6D0002947
:101D4000A4D022680C3252E8000F20F4907042E8D0
:101D50000007002FF5D12068143050E8002F22F042
:101D6000010240E80027002FF5D184F842302563B6
:101D700020680C3050E8002F22F0100240E80023C9
:101D8000002BF5D166632046FFF707FFF8BDFFE79C
:101D900005062BD5150629D594F841002128F5D143
:101DA000A068B0F5805F01D12069B0B1206A411C04
:101DB0002162216800784860E08C401E0004000C1D
:101DC000E084E3D12068C16821F08001C16020680F
:101DD000C16841F04001C160D8E7206A0088C0F3C3
:101DE00008004860206A801C2062E5E74006CDD5E7
:101DF0005006CBD5CA68204622F04002CA6084F85B
:101E0000413000F0A7F8C1E71B2E000870B50400B0
:101E100004D094F84100002510B106E0012070BD07
:101E200084F84050204600F023F8242084F8410034
:101E30002068C16821F40051C160204601F07EF89D
:101E40002068016921F4904101612068416921F015
:101E50002A0141612068C16841F40051C160656494
:101E6000202084F8410084F842006563002070BDA2
:101E700030B585B000240094019402940394006866
:101E8000184988422BD11848C16941F40031C16119
:101E9000C16901F400310491816941F0040181615B
:101EA0008069124D00F0040004900420009002208C
:101EB00001900320039069462846FEF7EBFD0820B9
:101EC000CDE90004694628460294FEF7E3FD0022AE
:101ED00005212620FEF770FF2620FEF75FFF05B0E4
:101EE00030BD0000004400400010024000080140E6
:101EF00090F84230202B01D00220704721B11AB156
:101F00000023036301F076B8012070470E4930B416
:101F1000884217D10D4841880A040DD40378002265
:101F20005A2B08D0C1F30E04094D491C89B22B5518
:101F30004180C72900D9428030BC012203490248B0
:101F4000FFF7D6BF30BC70470C0200209400002081
:101F5000701B00207047FEE770B5104D4FF4007401
:101F6000002221462846FEF78AFE00F019F80122D9
:101F7000160231462846FEF782FE00F011F80022D4
:101F800031462846FEF77BFE00F00AF82146284637
:101F9000BDE870400122FEF772BE0000000C014057
:101FA0000020401CC0B20A28FBD370470C4800B583
:101FB000816985B041F0080181618069694600F05E
:101FC000080004904FF4407000900320039011200B
:101FD00001900448FEF75EFD00F0AAF805B000BDD0
:101FE00000100240000C014070B50C4C012251025F
:101FF0002046FEF744FEFFF7D3FF012215022946D3
:102000002046FEF73CFEFFF7CBFF00222946204684
:10201000FEF735FEBDE87040FFF7C2BF000C01407F
:102020002DE9F0470024164E804625464FF40079EE
:102030004FF480776006040E012239463046FEF7E1
:102040001EFEFFF7ADFF49463046FEF713FE08B10E
:10205000641CE4B2002239463046FEF710FEFFF75A
:102060009FFF6D1CEDB2082DE4D3B8F1000F04D032
:10207000FFF772FF2046BDE8F087FFF7B5FFF9E7ED
:10208000000C01402DE9F041174E054600244FF4A5
:1020900080774FF40078280601D5012200E0002265
:1020A00041463046FEF7EBFDFFF77AFF0122394645
:1020B0003046FEF7E4FDFFF773FF00223946304655
:1020C000FEF7DDFD072C04D1012241463046FEF724
:1020D000D6FD6806050EFFF763FF641CE4B2082C0A
:1020E000D9D3BDE8F0810000000C014070B5012299
:1020F0000E4D540221462846FEF7C1FD012216026C
:1021000031462846FEF7BBFDFFF74AFF0022214675
:102110002846FEF7B4FDFFF743FF0022314628466C
:10212000FEF7ADFDBDE87040FFF73ABF000C01407F
:1021300070B50B4D4FF40074002221462846FEF77F
:102140009EFD012211022846FEF799FDFFF728FFA8
:1021500021462846BDE870400122FEF790BD0000F0
:10216000000C014070B50122104D54022146284652
:10217000FEF785FDFFF714FF0122160231462846BF
:10218000FEF77DFDFFF70CFF21462846FEF772FDA6
:1021900008B1012400E00024002231462846FEF761
:1021A0006EFDFFF7FDFE204670BD0000000C0140F3
:1021B0007CB514460D4606466B4606223B21682038
:1021C00000F0A2F800280BD1BDF8001049BA318008
:1021D000BDF8021049BA2980BDF8041049BA21801F
:1021E0007CBD7CB514460D4606466B46062243214F
:1021F000682000F089F800280BD1BDF8001049BA1A
:102200003180BDF8021049BA2980BDF8041049BADE
:1022100021807CBD08B56B4602224121682000F078
:1022200073F8BDF8000040BA00B205F095FB00223B
:10223000064B05F0FDF9064A064B05F03DF905F0A1
:1022400009F905F0DDFF00B208BD0000004075404F
:10225000A4703D0AD743424010B5FFF7A7FE802186
:102260006B2000F0C0F86420FEF702FC00216B2018
:1022700000F0B9F8032000F082F8002000F07AF8AE
:10228000322000F099F80021382000F0ACF800214D
:102290006A2000F0A8F80021232000F0A4F8802193
:1022A000372000F0A0F8752000F011F8682801D060
:1022B000012010BD01216B2000F095F800216C2059
:1022C00000F091F8322000F077F8002010BD10B532
:1022D0000446FFF70BFFD020FFF7D4FEFFF742FFC5
:1022E0002046FFF7CFFEFFF73DFFFFF7FFFED120AF
:1022F000FFF7C8FEFFF736FF0020FFF791FE044608
:10230000FFF716FF204610BD2DE9F0411D4614468B
:102310000F460646FFF7EAFE7006000EFFF7B2FE14
:10232000FFF720FF20B1FFF703FF0120BDE8F08198
:102330003846FFF7A7FEFFF715FFFFF7D7FE01208E
:1023400000EB4600C0B2FFF79DFEFFF70BFF09E070
:10235000012C0DD05FF00100FFF762FE641E05F84E
:10236000010BE4B2002CF3D1FFF7E2FE0020DDE721
:102370000020F1E7C006010E1C2000F034B8C006B2
:10238000010E1B2000F02FB8BC2801D3012110E062
:10239000622801D302210CE02A2801D3032108E09E
:1023A000142801D3042104E00A2801D3052100E008
:1023B00006211A2000F017B810B504464FF47A70C1
:1023C000844201D9044602E0042C00D20424B0FB6C
:1023D000F4F0401EC1B2192000F005F86008BDE815
:1023E0001040FFF7D1BF70B50C460546FFF77EFEE3
:1023F000D020FFF747FEFFF7B5FE50B92846FFF79C
:1024000041FEFFF7AFFE2046FFF73CFEFFF7AAFEB6
:1024100018B1FFF78DFE012070BDFFF789FE002087
:1024200070BD2DE9F0411E4615460F460446FFF7E4
:102430005DFE6006000EFFF725FEFFF793FE60B914
:102440003846FFF71FFEFFF78DFE00240CE0305DDD
:10245000FFF718FEFFF786FE20B1FFF769FE0120A7
:10246000BDE8F081641CE4B2AC42F0D3FFF760FE3B
:102470000020F5E7094808B5416941F001014161D3
:102480004069002200F00100009005210B20FEF7BA
:1024900093FCBDE808400B20FEF780BC0010024012
:1024A00010B50B4A00210B4803F064FB0A4C084AA4
:1024B000002120602432094803F05CFB044A60607C
:1024C00048320021064803F055FBA06010BD000013
:1024D0008487000825060008100000207106000807
:1024E000170600082DE9F04385B000242A4800941F
:1024F000019402940394816941F010018161816922
:1025000001F010010491816941F02001816181692C
:1025100001F020010491816941F004018161816928
:1025200001F004010491816941F008018161806931
:10253000DFF8689000F00800049000224FF4734127
:102540004846FEF79CFBDFF858804FF4F057002216
:1025500039464046FEF793FBF80001250326CDE9F6
:102560000005CDE9024669464846FEF793FA009712
:102570000396CDE9015469464046FEF78BFA3002D6
:10258000009001AA112082E8610069464846FEF7E2
:1025900081FA05B0BDE8F08300100240000C014054
:1025A0000008014010B58EB00024079408940994E7
:1025B0000A940B941C2168460C94FDF7EEFE2A4801
:1025C0004FF0804101604721C0E9011444F61F61CA
:1025D000C0E903148461FEF7E3FE08B1FEF744F896
:1025E0004FF48050079007A91F48FEF751FF08B12C
:1025F000FEF73AF81C48FFF752F908B1FEF734F835
:102600000B940BA918480C94FEF796FE08B1FEF740
:102610002BF86020CDE9000402940022694612489C
:102620000494FFF7D6F808B1FEF71EF804226946B5
:102630000D48FFF7CEF808B1FEF716F808226946F4
:102640000948FFF7C6F808B1FEF70EF80C226946F4
:102650000548FFF7BEF808B1FEF706F80248FFF795
:102660003BF80EB010BD0000F000002010B58EB099
:1026700000240794089409940A940B941C2168463A
:102680000C94FDF78AFE2A48284901604721C0E9D9
:10269000011444F61F61C0E903148461FEF780FE53
:1026A00008B1FDF7E1FF4FF48050079007A92048DB
:1026B000FEF7EEFE08B1FDF7D7FF1D48FFF7EFF874
:1026C00008B1FDF7D1FF0B940BA919480C94FEF744
:1026D00033FE08B1FDF7C8FF6020CDE90004029485
:1026E0000022694612480494FFF773F808B1FDF719
:1026F000BBFF042269460E48FFF76BF808B1FDF7EF
:10270000B3FF082269460A48FFF763F808B1FDF7EE
:10271000ABFF0C2269460648FFF75BF808B1FDF7EE
:10272000A3FF0348FEF7D8FF0EB010BD0004004021
:102730003801002010B58AB0002407941C21684697
:102740000894FDF72AFE16481449C0E900144FF614
:10275000FF71C0E9024104618461FFF7A0F808B18C
:10276000FDF782FF079407A90D480894FEF7E4FDE2
:1027700008B1FDF779FF6020CDE900040294002242
:10278000694607480494FFF724F808B1FDF76CFF89
:102790000348FEF7A1FF0AB010BD0000000800408A
:1027A000800100200C4810B50A4901604FF4165111
:1027B0004160002181600C22C160C0E90412816186
:1027C000C161FFF723FB002803D0BDE81040FDF7EF
:1027D0004BBF10BD004400400C020020FEE700008B
:1027E00010B500210848FFF7B5F804210648FFF7A7
:1027F000B1F808210448FFF7ADF8BDE810400C21FE
:102800000148FFF7A7B80000380100202DE9F0418A
:102810000246642901DD642104E06FF06300814217
:1028200000DA0146C8204843454F464D04B2012A0C
:1028300019D0BE14022A36D04348032A52D0042AA3
:102840000FD11303560300296BDB002219460746FC
:10285000FEF715FA012231463846FEF710FA2868CD
:102860000464BDE8F0814FF40070460000290CDBE1
:10287000014601223846FEF702FA00223146384668
:10288000FEF7FDF928684463EBE70146002238466D
:10289000FEF7F5F9012231463846FEF7F0F92968CE
:1028A00060424863DDE74FF4006000290CDB01461D
:1028B00001223846FEF7E3F9002231463846FEF79A
:1028C000DEF928688463CCE7014600223846FEF72B
:1028D000D6F9012231463846FEF7D1F9296860421F
:1028E0008863BEE74FF4005700290CDB3146002215
:1028F0000646FEF7C4F9012239463046FEF7BFF915
:102900002868C463ADE7314601220646FEF7B7F9F1
:10291000002239463046FEF7B2F929686042C863A2
:102920009FE7012219460746FEF7A9F90022314622
:102930003846FEF7A4F929686042086491E7000070
:102940000008014038010020000C0140FEE70000B3
:1029500010B50446084605F0A7FC0F4905F08EFBAC
:102960000E4905F0E9FC0E4905F014FB05F048FCA2
:102970000C4900B2012C096807D0022C07D0032CA7
:1029800007D0042C00D1086410BD486310BD8863D3
:1029900010BDC86310BD0000000034430000FA44BD
:1029A0000000FA43F000002010B500210848FEF7AF
:1029B000D1FF04210648FEF7CDFF08210448FEF7A9
:1029C000C9FFBDE810400C210148FEF7C3BF00005D
:1029D000F000002010B50F4C206805F011FC41B24A
:1029E0000120FFF713FF606805F00AFC41B20220E6
:1029F000FFF70CFFA06805F003FC41B20320FFF7CE
:102A000005FFE06805F0FCFB41B2BDE81040042082
:102A1000FFF7FCBE5C1D00202DE9F041104CD4E90D
:102A20000B653146284605F085FD676B80463946C3
:102A300005F080FD20602946304605F0ABFA0546DA
:102A4000394605F0A7FA60604046394605F0A2FA1B
:102A5000A0602846394605F06DFDE060BDE8F081D4
:102A60005C1D002010B5502080F31188BFF34F8FFC
:102A7000BFF36F8F04F04CFB18B104494FF0805046
:102A80000860002080F3118810BD000004ED00E014
:102A900030B58FB028216846FDF77FFC14210AA8C5
:102AA000FDF77BFC01210804CDE90010002402940D
:102AB00002250491CDE907504FF4E01009906846D3
:102AC000FEF7A8FA08B172B6FEE70F20CDE90A05B5
:102AD0004FF48060CDE90C4002210AA80E94FEF765
:102AE0009DF9002801D072B6FEE70FB030BD7047E7
:102AF0000148FEF73DBD000054020020F0B5026819
:102B0000164B174C174D4FF08047984205D0B842EE
:102B100003D0A04201D0A84203D122F070064A6837
:102B20003243984205D0B84203D0A04201D0A84217
:102B300003D122F44074CA6822434C6922F0800217
:102B4000224302608A68C2620A688262984201D1A6
:102B50000969016301214161F0BD0000002C0140C1
:102B6000000400400008004010B501F01F030121DF
:102B7000046A99408C430462016A9A4011430162DD
:102B800010BD10B5446A0121626A824205D12177E5
:102B90008069F8B984F83E101CE0A26A824206D12E
:102BA000022222778069A8B984F83F1012E0E26A15
:102BB000824206D104222277806958B984F84010F5
:102BC00008E0226B824205D108222277806908B989
:102BD00084F841102046FEF7BBFE0020207710BD90
:102BE00010B5446A616A814201D101200DE0A16AF9
:102BF000814201D1022008E0E16A814201D1042032
:102C000003E0216B814201D1082020772046FEF7A6
:102C1000A0FE0020207710BD10B5446A0121626A31
:102C2000824203D1217784F83E1019E0A26A8242E1
:102C300004D10220207784F83F1011E0E26A82423A
:102C400004D10420207784F8401009E0226B8242EE
:102C500004D10820207784F8411001E084F83D1069
:102C60002046FEF783FC0020207710BD10B5846855
:102C700042EA032224F47F440A432243826010BDC7
:102C8000826822F070020A4342F0070181607047B7
:102C900030B5036A026A22F0010202624268846966
:102CA00024F073050C682C4323F002058B682B433A
:102CB0000A4DA8420BD123F00805CB6822F44072DC
:102CC0002B434D6923F0040315438A692A4342606C
:102CD000846149684163036230BD0000002C0140FB
:102CE00030B5026A036A23F0100303624368846903
:102CF0000D6824F4E64444EA05248D6822F020029D
:102D000042EA05120B4DA8420ED1CD6822F0800296
:102D100042EA05124D6923F4406343EA85038D6955
:102D200022F0400243EA850343608461496881637D
:102D3000026230BD002C014030B5036A026A22F401
:102D4000807202624268C46923F4007324F0730540
:102D50000C682C438D6843EA05230C4DA8420ED124
:102D6000CD6823F4006343EA05234D6922F4405201
:102D700042EA05128D6923F4806342EA051242603B
:102D8000C4614968C163036230BD0000002C01408A
:102D900030B5046A026A22F4805202624268C36952
:102DA0000D6823F4E64343EA05238D6824F40054B8
:102DB00044EA0534064DA84204D14D6922F480420C
:102DC00042EA85124260C36149680164046230BD11
:102DD000002C014010B5036A046A24F00104046267
:102DE000846924F0F00444EA021423F00A020A433E
:102DF0008461026210BD10B5036A046A24F01004F5
:102E00000462846923F0A00324F4704444EA02328B
:102E100043EA01118261016210BD10B5406A0021D0
:102E2000C185C184FEF7BAFE10BD01680C3151E8BE
:102E3000002F22F4907241E80023002BF5D10168A5
:102E4000143151E8002F22F0010241E80023002B49
:102E5000F5D1016B012909D101680C3151E8002F2E
:102E600022F0100241E80023002BF5D1202180F848
:102E7000421000210163704708B590F842102229E2
:102E800001D0022008BD82684FF480539A4201D1DC
:102E9000016921B1816A9A421BD04AB10AE00268F5
:102EA000816A5268C2F308020A80816A891C08E0BC
:102EB000026972B10268526802F07F020A70816A88
:102EC000491C8162C18D491E0904090CC18503D0CA
:102ED0001BE002685268F1E70168CA6822F020022C
:102EE000CA600168CA6822F48072CA6001684A69CF
:102EF00022F001024A61202180F842100021416342
:102F0000026B012A03D0FFF701F8002008BD01631E
:102F100001680C3151E8002F22F0100241E8002333
:102F2000002BF5D101680A68D20602D50A68496803
:102F30000091818DFEF731FEE7E7000070B5044691
:102F400000680169E26821F440511143016121697F
:102F5000A0680843616908432168CA6841F20C63AC
:102F60009A430243CA6020684169A26921F4407112
:102F7000114341611E492068884202D1FEF714F8CE
:102F800001E0FEF701F800EBC00101EB0012606800
:102F900064218000B2FBF0F3B3FBF1F36FF018068D
:102FA0007343B2FBF0F5B2FBF0F605EB8305322379
:102FB00003EB0515B5FBF1F5B6FBF1F605F0F005F1
:102FC00005EB0615B2FBF0F6B2FBF0F0B0FBF1F04A
:102FD0006FF01802504306EB800003EB0010B0FBCB
:102FE000F1F0216800F00F002844886070BD0000F7
:102FF0000038014081628285C2850021416422211E
:1030000080F84210016921B10168CA6842F48072F7
:10301000CA6001684A6942F001024A610068C168F9
:1030200041F02001C1600020704700000148FEF718
:10303000B7BD00000C020020FEE700000748082191
:1030400020F8C41F064901610649816006494160B4
:103050000649C1600649416170470000381C0020E4
:103060009D30000869310008A93100083531000899
:10307000D5320008490050EAC12018BF04204A0D8B
:1030800018BF40F0010040F2FF72B2EB515F08BF81
:1030900040F00200012808BF05207047F0B5002469
:1030A0000C701B4D14701C70B5F8C44084422ED3B4
:1030B000002400EB400C802004EBCC062E4492F858
:1030C00000E0F7783D2F02D320FA04F700E0002754
:1030D0004EEA070E82F800E0F77A91F800E03D2F03
:1030E00002D320FA04F700E000274EEA070E81F829
:1030F00000E0F67C1F783D2E02D320FA04F600E0B3
:1031000000263743641CE4B21F70082CD4D3F0BDF2
:10311000381C00200907090E002804DB00F1E0201C
:1031200080F80014704700F00F0000F1E02080F8F4
:10313000141D70472DE9F04116460F4680460024C5
:10314000084D08E0D5F8C8C033463A464146204607
:10315000E047641CA4B2B5F8C400A042F2D8BDE8B0
:10316000F0810000381C00202DE9F04190460F4608
:10317000002504460B4E0FE005EB4500C119D6F8BB
:10318000C8C08B784A78395C2046E0476D1CADB2E8
:10319000454505D8641CA4B2B6F8C400A042EBD8DB
:1031A000BDE8F081381C0020F0B5154DB5F8C440DD
:1031B000844224D30024802600EB400C26FA04F03D
:1031C000104202D04FF03D0E01E04FF01C0E04EB18
:1031D000CC072F44084287F803E002D04FF03D0EA1
:1031E00001E04FF01C0E87F80BE0184201D03D20A3
:1031F00000E01C20641CE4B2F874082CDED3F0BD9F
:10320000381C00202DE9F0414F1E00EBC701044699
:10321000D1E9000115461E4637F006020DD02A46B8
:10322000334604F0B1FB7F1E04EBC703D3E9002350
:1032300004F042F937F00602F1D1022F25D0042F15
:1032400013D0062F18BFBDE8F0812A46334604F09C
:103250009BFBD4E90A2304F02FF92A46334604F0F5
:1032600093FBD4E9082304F027F92A46334604F0F7
:103270008BFBD4E9062304F01FF92A46334604F0F9
:1032800083FBD4E9042304F017F92A46334604F0FB
:103290007BFBD4E9022304F00FF92A46334604F0FD
:1032A00073FBD4E90023BDE8F04104F005B9012225
:1032B00005F0E7B904F000B90022134610461146A4
:1032C00004F0B6B9024A0020110705F0DAB900008F
:1032D00001FDFFFFC423024A00210248FEF788BB1C
:1032E000381C0020380100202DE9FE4F07460E460D
:1032F0000025684601F0AEF900246FF00F0AE84699
:103300004FF0010957F8240056F82410401A00D550
:10331000404204F0B1FF514605F0E1F958F824109D
:1033200011F0FF4F0BD004F0A9FE4FF07E5105F0D5
:1033300001F90A4920F00040884205DC07E008490D
:1033400008440849884202D309FA04F00543641C82
:10335000032CD7DB2846BDE8FE8F0000295C0F3E1A
:10336000666666C19A99D9002DE9F04D8D4F21F01E
:10337000004A86B005460C46BA452ADBAAEB070090
:1033800028430AD08848824501DC1AD1CDB106B065
:103390002846BDE8F04DFFF78ABF844A844B284693
:1033A00004F0F2FA07460E46824A834B284621462D
:1033B00004F0EAFA06B03A463346BDE8F04D04F0B0
:1033C0007BB80120FDF78FF806B0BDE8F04DFFF7A0
:1033D00073BF7A48824542DABAF1795F0BDA284640
:1033E000FFF748FE042808BFFFF76CFF284606B029
:1033F0002146BDE8F08D2A460B46104604F0C4FA7B
:10340000834602466E480E460B4606217844FFF777
:10341000F9FE5A46334604F0B7FA804669488A46B0
:103420005A46334604217844FFF7ECFE5A463346A9
:1034300004F0AAFA00223B4604F03EF802460B468E
:103440004046514604F0F4F82A46234604F09CFA1C
:1034500006B02A462346BDE8F04D04F02DB82846B4
:1034600024F0004100223D463B4604F08BFB4FF028
:10347000FF3205F006F90646024653480F460B4652
:1034800006217844FFF7BEFE32463B4604F07CFA44
:10349000CDE900014D4832463B4604217844FFF710
:1034A000B1FE32463B4604F06FFA00222B4604F090
:1034B00003F8834602913046394603F0D1F880463E
:1034C00043480D46504517DCDDE900015A46029B92
:1034D00004F0AEF842462B4604F056FA42462B461C
:1034E00003F0EAFF012205F0CCF8304A304B04F03B
:1034F0003BFC304A304B4CE04FF0000A52460B4642
:10350000404603F0D9FFCDE9031052462B46104642
:10351000194604F039FA32463B4604F033FBDDE944
:10352000033204F085F806460F46DDE900015A46ED
:10353000029B04F07DF88346009101223046394613
:1035400005F09FF8194A1A4B04F01CFB06460F467B
:1035500001224046294605F094F85A46009B04F0A3
:1035600013FA32463B4604F0FFFB06460F460122A3
:103570005046294605F085F80E4DDFF858802A465A
:10358000434604F0FFFA32463B4604F0FBFA2A4673
:10359000434604F0F7FA002CD8BF81F0004106B092
:1035A000BDE8F08D0000F03F0000F07F075C1433B1
:1035B00026A6913C182D4454FB21F93F0000E03F22
:1035C000286000003E600000B25F0000C85F00009D
:1035D0003333EF3FFB21E93F2DE9F84F04460D4619
:1035E00021F0004000917349814211DC7249884208
:1035F00001DC06D12CB120462946BDE8F84FFFF783
:1036000056BE6E48002DCCBF6D496E49BDE8F88F9F
:103610006D49814211DD6D498142D8BF4FF0FF36BF
:103620006DDD20462946FFF725FD042808BFFFF77A
:1036300049FE20462946BDE8F88F6549654F25F0CB
:103640000045814233DD6449814219DD002632465E
:103650004FF080432046294603F02EFF80468A46DD
:1036600001222046294605F00CF800223B4604F0D2
:103670007BFB4246534603F0DBFF04460D463EE02B
:1036800001260022BA463B462046294603F014FF95
:1036900080460F46002253462046294604F064FB2C
:1036A00042463B4603F0C4FF04460D4627E04B4923
:1036B00081421BDDDFF828A1022600225346204666
:1036C000294604F061F900223B4603F0F5FE8046EE
:1036D0000F46002253462046294604F045FB424649
:1036E0003B4603F0A5FF04460D4608E003262246AC
:1036F0002B4600203B4903F09BFF04460D46224623
:103700002B461046194604F03FF98B468246024686
:103710000B4604F039F907460246334888460B4603
:1037200006217844FFF76EFD52465B4604F02CF903
:1037300082462E488B463A46434605217844FFF799
:1037400061FD3A46434604F01FF902460B46002E3F
:10375000504659460CDA03F0AFFE22462B4604F0E1
:1037600013F901B022462B46BDE8F04F04F00ABA27
:1037700003F0A2FE22462B4604F006F91C4A7A44C6
:1037800002EBC603D3E9002304F0EEFA22462B46EF
:1037900004F0EAFA174A7A4402EBC603D3E900239D
:1037A00004F0F0F9009A002AB8BF81F00041BDE8AA
:1037B000F88F0000000010440000F07F182D4454E2
:1037C000FB21F93FFB21F9BF0000DC3F0000203E58
:1037D0000000F33F0000F03F0000E63F00800340A0
:1037E0000000F83F0000F0BFCA5D0000885D0000E7
:1037F000265D0000EE5C00002DE9F04D9446CCF112
:10380000000423F000464CEA0404594F46EAD474FD
:103810009A46884621F00042BC4206D8454240EA1A
:10382000050442EAD474BC4204D9BDE8F04D6246B6
:10383000FFF740BDAAF14055A5F17F6555EA0C049C
:103840000BD0022404EAAA744A4DDFF82CE144EAC2
:10385000D87452EA000B04D00CE0BDE8F04DFFF73D
:10386000BBBE002C14BF012CBDE8F08D022C30D063
:10387000032C32D056EA0C0B0AD0BE4220D1BA42F9
:1038800009D126F0804622F080423346114617E0E7
:1038900000291ADB25E0DFF8E4B0FB44002C04BF6C
:1038A000DBE90001BDE8F08D012C02BFDBE900017E
:1038B00081F00041BDE8F08D022C0AD0032C0CD021
:1038C000BA4212D1B8F1000F0BDA2A482C49BDE8F0
:1038D000F08D28462B49BDE8F08D28467146BDE89D
:1038E000F08D24482849BDE8F08D921B12153C2A22
:1038F000C4BF204F244E10DCBAF1000FBEBF12F13E
:103900003C0F00273E4608DB624603F091FE21F0A3
:103910000041FFF761FE07460E4694B1012C08BF37
:1039200086F000460DD0194A194B022C3846314614
:1039300015D004F019FA2A46BDE8F04D114B04F0F9
:1039400013BA002213463846314603F0C9FF04BFBC
:103950000220FCF7C8FD38463146BDE8F08D04F082
:1039600003FA2A46BDE8F04D064B04F00BB90000FF
:103970000000F07F182D4454FB2109C0825C000038
:10398000FB21F9BFFB210940FB21F93F075C143300
:1039900026A6A13C2DE9FF4F002083B0984689461A
:1039A000109E00908246834605460446029028E019
:1039B0000398059950F8247027F0004004F088FC23
:1039C0001ED8601C04F058FC01460190009804F0D9
:1039D000E1FA00903946029804F0DCFA0290394688
:1039E000019804F0A9FC514604F0D4FA01998246EA
:1039F000084604F0A1FC594604F0CCFA83466D1C3D
:103A0000641C4C45D4DB0027022D04DA4FF07E51B4
:103A1000C8F800103BE00099084604F08DFC04460D
:103A2000284604F029FC8146594604F085FC2146CD
:103A300004F080FD044610F0FF4F28D00299009852
:103A400004F07AFC05464846514604F075FC2946C8
:103A500004F070FD214604F011FBC8F80000484650
:103A6000214604F069FC04465146009804F064FCC9
:103A700005465946029804F05FFC294604F05AFDB9
:103A8000214604F0FBFA306007B0BDE8F08F3760E4
:103A9000FAE700001CB508490020002308604860D0
:103AA0008860C8600548009001901A464FF07E512A
:103AB000034802F025F91CBD5C1D00200000C8422F
:103AC000241D00202DE9F041154C164A2046217C8A
:103AD0008769154DD66AC06911B1012906D013E076
:103AE00027636169E16260632E600DE00F4904F0B5
:103AF000C5FA296804F04EFA2860024631460C489F
:103B0000276302F089F86063FEF786FF64220421D0
:103B1000034801F01EF8BDE8F041FEF75BBF00006E
:103B20005C1D0020A01D0020D000002000004843A4
:103B3000241D00202DE9F047604E3078A52876D16D
:103B400070785F4C5F4DB0F100084FF0000901D173
:103B5000B078C0B36778784204F08EFB824638466E
:103B600004F0A2FB07464FEA4800643804F084FBE7
:103B70005246394600F0AAF8A861A778784204F0C6
:103B80007BFB8046384604F08FFB0746B078400048
:103B9000643804F071FB4246394600F097F86861DA
:103BA000A778784204F068FB8046384604F07CFB36
:103BB0000746B0794000643804F05EFB424639465F
:103BC00000F084F803E0FFE74846C5F81890E86184
:103BD000F078B046012806D002280DD0032827D05F
:103BE00004282ED04AE0FCF741FDE168401A322853
:103BF00044D92669761E07E0FCF738FDE168401AD3
:103C000032283BD92669761C2661E778784204F091
:103C100033FB8246384604F047FB0746304604F043
:103C20002BFB5246394600F051F8286223E041E070
:103C3000FCF71CFDE168401A32281FD96669761C22
:103C400007E0FCF713FDE168401A322816D96669CF
:103C5000761E66612779784204F00EFB824638466C
:103C600004F022FB0746304604F006FB5246394674
:103C700000F02CF86862FCF7F9FCE06098F80400AA
:103C80004646400004F010FBA862707930B185F818
:103C90001090322060702070A0700BE06420607083
:103CA000094A2070A070111D101F01F031F808B9E9
:103CB00001202874BDE8F04700F0E2BF701B00202F
:103CC000D40000205C1D0020CC1D002070B51546DE
:103CD0000E46044604F0FCFB01D234460FE02946B0
:103CE000204604F0F5FA01D22C4608E03146204681
:103CF00004F0EEFA03D22946204604F0E9FB204600
:103D000070BD08B560B120208DF8000028208DF826
:103D1000010030208DF8020038208DF8030004E007
:103D2000A32204216846FCF730FB6A46042140F6D2
:103D30009E2001F09FFE01F05DFB08BD3EB50446EC
:103D400002208DF80000CA208DF80100E3208DF8D4
:103D5000020009208DF803006A460421682001F062
:103D600089FEA3208DF80000610609D5C0218DF8D9
:103D70000110C8218DF80210C2218DF8031005E052
:103D80008DF801008DF802008DF8030014F4C07F57
:103D900009D0C4218DF80410CC218DF80510C6215E
:103DA0008DF8061005E08DF804008DF805008DF8FB
:103DB00006008DF808008DF807008DF809006A46A6
:103DC0000A2140F6A72001F055FEA0074FF0D805C4
:103DD00003D020208DF8000001E08DF800506A46E5
:103DE000012140F6B62001F045FEA00601D50120D4
:103DF00000E0002000F08EF814F4C07F1ED0E00533
:103E00000AD5B2208DF800008B208DF80100B62075
:103E10008DF802009B2009E0B0208DF80000802082
:103E20008DF80100B4208DF8020090208DF8030079
:103E30006A46042140F6A22001F01CFEE1074FF47F
:103E40000B6022D0F8218DF800106A46012101F0A4
:103E500011FEFA21072000F049FB072000F014FBB7
:103E6000012000F031FB642000F0D4FB4FF4FA7025
:103E700000F0E0FBC821254800F0CEFA282000F031
:103E8000E3FA0A2000F0F0FA05E08DF800506A46E7
:103E9000012101F0EFFDA00703D5D9208DF8000026
:103EA00001E08DF800506A46012140F23D7001F0BA
:103EB000E1FD600701D5012000E0002000F048F896
:103EC000E00601D5012000E00020FFF71AFF104DA9
:103ED00044F00800688101F08DFA0020A8736006A4
:103EE00001D50620A87314F4C07F02D0A87B801DE2
:103EF000A87314F0140F02D0A87B1030A873A00789
:103F000002D0A87B001DA87300203EBD09E3CA02B1
:103F1000141D00200EB54FF4976310B106A107C918
:103F200001E008A207CA8DE807006A460921184681
:103F300001F0A0FD0EBD0000B8AAB38DB4980D35F8
:103F40005D000000B8AAAAAAB088C3C5C7000000D7
:103F500008B560B1C0208DF80000C2208DF80100C6
:103F6000C4208DF80200C6208DF8030004E08B22E7
:103F700004216846FCF709FA6A46042140F69820B5
:103F800001F078FD01F036FA08BD0000C8234FF4B7
:103F90008062024940F6F63001F00EB94088000810
:103FA0002DE9FF4F89B01746DDE916520024544E23
:103FB000884681462C80A246B07B694601F0A8F96C
:103FC0004FF0FF3B18B158460DB0BDE8F08F708937
:103FD00010F0140F4CD0BDF800109DF8022049BA23
:103FE000090441EA02239DF803100B433B60BDF82E
:103FF00004109DF8062049BA090441EA02229DF8FE
:1040000007101B140A437A60BDF808109DF80A4097
:1040100049BA090441EA04219DF80B4012142143D6
:10402000B960BDF80C409DF80EC064BA240444EA9F
:104030000C2C9DF80F4009144CEA040CC7F80CC076
:104040004FEA2C475B43494302FB023207FB07114F
:1040500011441024A1F17061B1F1007F04D901F085
:10406000C9F9A5F800A0AEE7298841F4807129803C
:104070004206694611D50A19A41D13885BBAA8F82F
:10408000003053885BBAA8F80230928852BAA8F878
:1040900004202A8842F008022A8010F4C07F11D040
:1040A0000A19A41D13885BBAA9F8003053885BBABB
:1040B000A9F80230928852BAA9F804202A8842F05E
:1040C00070022A80800716D00C44E07800F0C0050A
:1040D00000F03F016078C00706D0C80801F0070172
:1040E0003268491C02B190476078000703D57168B7
:1040F00009B1A80988470C9800F0BAFD002063E7D1
:10410000141D00202DE9FF41044603A800F03CFFE8
:10411000BDF80C00410CC3032F48008900F00302D6
:1041200054F82250420700D56D42C0F3C102860602
:1041300054F8222000D55242C0F38116C00554F82D
:10414000264000D56442A5FB0367E81700FB037017
:1041500005FB0100850045EA9670A2FB0367D517B1
:1041600005FB037502FB0152950045EA9672A4FB1C
:104170000367E51705FB037304FB01318B0043EA7A
:104180009671030E8DF80030030C8DF80130030A90
:104190008DF802308DF80300100E8DF80400100C1D
:1041A0008DF80500100A8DF80600080E8DF808003D
:1041B000080C8DF80900080A8DF80A008DF8072010
:1041C0008DF80B106A460C214FF4257001F052FC5B
:1041D00004B0BDE8F0810000141D002030B5044695
:1041E00013A285B007CA8DE807004FF0FF35C82C31
:1041F00016D8C820B0FBF4F1491E080A8DF80C004F
:104200008DF80D1003AA022140F2162001F032FCB5
:1042100030B96A460C2140F6C12001F02BFC10B1E8
:10422000284605B030BD054884810020F9E700002C
:10423000FEF2ABC4AAF1DFDFBBAFDFDF141D00204D
:10424000F8B53049098901F0030250F822404A07C5
:1042500000D56442C1F3C1028B0650F8222000D57C
:104260005242C1F3811350F82330C80500D55B4298
:10427000254984FB0140850045EA947082FB014298
:10428000A40F44EA820483FB0121950F45EA8105CE
:10429000010E8DF80010010C8DF80110010A8DF847
:1042A00002108DF803006A4604214FF4747001F087
:1042B000E1FB4FF0FF3688B9200E8DF80000200C8E
:1042C0008DF80100200A8DF802008DF803406A463F
:1042D00004214FF4757001F0CDFB08B13046F8BDF4
:1042E000280E8DF80000280C8DF80100280A8DF8A2
:1042F00002008DF803506A4604214FF4767001F0F5
:10430000B9FBF8BD141D002009E3CA022DE9FF41E5
:1043100004463CA004F00303006802903AA0006841
:1043200003903AA006683AA0056802A8C15C8DF81F
:104330000010C4F3C101425C8DF80120C4F3811266
:10434000805C8DF8020003A8C35C8DF80430415CEA
:104350008DF80510805C8DF806006A46032140F256
:10436000264001F087FB4FF0FF37E0BB01AA032195
:1043700040F22A4001F07EFBA8BBCDE90065600752
:104380000BD59DF8000040F001008DF800009DF86D
:10439000040040F001008DF80400A0060BD59DF844
:1043A000010040F001008DF801009DF8050040F08B
:1043B00001008DF80500E0050BD59DF8020040F0E6
:1043C00001008DF802009DF8060040F001008DF814
:1043D00006006A4603214FF4886001F04BFB10B9D8
:1043E00001AA032100E004E040F2314001F042FB69
:1043F00018B1384604B0BDE8F081064804810020B9
:10440000F8E700004CCD6C000CC92C003656760045
:1044100026466600141D00204FF47A7290FBF2F0DD
:1044200008B54843010E8DF80010010C8DF80110FD
:10443000010A8DF802108DF803006A4604214FF43A
:10444000AE7001F017FB08BD0521B0FBF1F008B517
:10445000010A8DF800108DF801006A4602214FF420
:10446000AD7001F007FB08BD0521B0FBF1F008B508
:10447000010A8DF800108DF801006A4602214FF400
:10448000AC7001F0F7FA08BD08B500218DF80010F6
:10449000C10702D030218DF80010810705D59DF8A5
:1044A000001041F00C018DF80010400705D59DF873
:1044B000000040F003008DF800006A4601214FF42F
:1044C000A47001F0D7FA08BD08B560B1042800D97E
:1044D0000420401E8DF800006A46012140F24F1072
:1044E00001F0C8FA08BD0120F3E700002DE9FC4106
:1044F000054640074FF0FF367CD0B1F5C86F79D83C
:10450000084603F0D1FE3E4903F0B8FD074601A876
:1045100000F01CFD9DF80400022806D004280DD0F0
:1045200008282ED0102865D134E00E21384604F03A
:10453000D6F803F081FE84B2324907E00D213846F7
:1045400004F0CDF803F078FE2F4984B2384603F02A
:10455000F3FE03F071FE210A8DF8001080B28DF891
:104560000140010A8DF802108DF80300E8076C463F
:1045700020D0224602214FF4EA7001F07BFAC8BB3A
:1045800011E00C21384604F0AAF803F055FE84B27D
:104590001E49DBE70B21384604F0A1F803F04CFE7E
:1045A00084B21B49D2E7A21C02214FF4927001F0A1
:1045B00061FAF8B9A8070DD56A4602214FF4EC70EC
:1045C00001F058FAB0B9A21C02214FF4947001F026
:1045D00051FA78B9680710D56A4602214FF4EE7097
:1045E00001F048FA30B9A21C02214FF4967001F094
:1045F00041FA10B13046BDE8FC810020FBE7000025
:1046000000004843000040460000C045000040450F
:104610000000C0440521B0FBF1F008B5010A8DF897
:1046200000108DF801006A4602214FF4EF7001F08E
:1046300021FA08BD0521B0FBF1F008B5010A8DF89B
:1046400000108DF801006A4602214FF4ED7001F070
:1046500011FA08BD2DE9FE430646264801AB0422A7
:1046600040680D210078FDF74FFE10B10720BDE82E
:10467000FE839DF804101C2000EAD1029DF807106B
:10468000DFF87490C1F301131A438DF800209DF8F0
:104690000520C1F3810300EAD2021A438DF80120FC
:1046A0009DF8062001F0030100EAD200084300242F
:1046B000124F8DF80200A0466D46285D10B146F8F5
:1046C00024900AE046F824800DE000BF56F824004C
:1046D000394603F031FE46F82400285D401E10F0F4
:1046E000FF002855F2D1641CE4B2032CE5D300206E
:1046F000BDE70000980000207B14AE3E1D5A843FA9
:104700002DE9FE4F05460120C14E8DF800004FF007
:1047100000088DF8018030680C461746817C70686F
:104720006B4602220078FDF77CFE4FF0FF3A00282E
:104730007AD1C820FCF79CF98DF8008030686B4670
:104740000122C17B70680078FDF76BFE0028EFD175
:1047500030686B460122417970680078FDF761FE90
:104760000028E5D130686B460122817C70680078B2
:10477000FDF757FE0028DBD130686B460122C17D72
:1047800070680078FDF74DFE0028D1D130686B4687
:104790000122017970680078FDF743FE0028C7D137
:1047A0004FF00C098DF8009030686B4601220179BA
:1047B00070680078FDF735FE002835D10F20FCF732
:1047C00057F9B06A6B460122407A8DF800003068D4
:1047D000817870680078FDF724FE002824D1B06A43
:1047E0006B460122007A8DF80000306841787068CD
:1047F0000078FDF716FE002873D1B06A807A0FB1F9
:1048000040F0E0008DF8000030686B4601228179AD
:1048100070680078FDF705FE002862D12FB1B06AFC
:10482000C07A40F0E00001E04AE018208DF8000076
:1048300030686B460122C17970680078FDF7F1FDA0
:10484000F0BB17B1C820FCF713F940208DF8000029
:1048500030686B460122017970680078FDF7E1FD50
:1048600070BB78208DF8000030686B4601224179DA
:1048700070680078FDF7D5FD10BB3220FCF7F8F822
:104880008DF80080306847466B4641797068012298
:104890000078FDF7C6FD98B931687068B046897A2E
:1048A00000786B460222FDF72FFD48B9BDF80000E5
:1048B000AF6040BAB0FBF9F06F60C6B22F6000E0A5
:1048C0000FE0A76067602760002739E0D8F8001084
:1048D000D8F804006B46C97A00780C22FDF714FD65
:1048E00010B15046BDE8FE8FBDF80000236840BA05
:1048F00000B2BDF80210BDF804201844206049BA87
:10490000606809B20844606052BAA06812B21044EC
:10491000A060BDF806002B6840BA01B2BDF80800DF
:10492000BDF80A201944296040BA696800B20844F9
:10493000686052BAA86812B210447F1CFFB2A86027
:10494000B742C3D328688322C117090441EA104142
:1049500000040023FBF784FC32460023FBF780FCB5
:10496000286068688322C117090441EA10410004E5
:104970000023FBF775FC32460023FBF771FC6860EF
:10498000A8688322C117090441EA104100040023EA
:10499000FBF766FC32460023FBF762FCA860206848
:1049A0004FF40065C117090441EA104100042A468A
:1049B0000023FBF755FC32460023FBF751FC206037
:1049C00060682A46C117090441EA10410004002327
:1049D000FBF746FC32460023FBF742FC6060A06810
:1049E0002A46C117090441EA104100040023FBF7DD
:1049F00037FC32460023FBF733FCA060002802DDC1
:104A0000A0F5803001E000F58030A060002069E76B
:104A1000980000202DE9F84F81462E488846002551
:104A200040686B46032200780D21FDF76DFC10B144
:104A30000720BDE8F88F9DF80000002400F01F005B
:104A40008DF800009DF801006FF00F0B00F01F00C3
:104A50008DF801009DF802006E4600F01F008DF8F1
:104A600002004FF0010A00BF59F8241058F8240042
:104A7000081A00D5404203F0FFFB594603F02FFE11
:104A80000746305DC0B1144802E0144903F054FCFD
:104A9000315D491E11F0FF013155F6D1014638460E
:104AA00003F0ECFA4FF07E5103F044FD0C4920F086
:104AB0000040884205DC07E00A483844B0F1D97F5D
:104AC00002D90AFA04F00543641C032CCCDB284607
:104AD000AFE70000980000200000C84154E3853F84
:104AE000295C0F3E0000E0BE00B5024600F00DF864
:104AF0000346D01C00F009F843EAC003901D00F003
:104B000004F843EA801080B200BD90F9001000293B
:104B100002DD4FF00000704702DA4FF004007047EA
:104B200090F90110002902DD4FF00100704702DA10
:104B30004FF00500704790F90200002802DD4FF0A9
:104B40000200704702DA4FF0060070474FF007008E
:104B500070472DE9F0474FF0000891460F46054693
:104B60004FF0FF3644460EE0404603F085FB55F813
:104B7000241003F0ADFB05D255F8240003F040FBF0
:104B800080462646641CBC42EEDB4946C8451FDD14
:104B9000084603F089FB044645F82600404603F02A
:104BA0006BFB0146204603F069FA804600240DE0C5
:104BB000B4420AD055F82400414603F0BDFB03F08F
:104BC0001FFB03F059FB45F82400641CBC42EFDBDB
:104BD000BDE8F0872DE9F0471446DDE908561F4689
:104BE000804689462A46334600200A4903F0BCF82D
:104BF00022463B4602F0C8FE04460F462A4633468C
:104C00004046494602F0C0FE22463B46BDE8F0471A
:104C100002F052BC0000F03FFCF744F8FDF738FF0B
:104C2000FDF760FCFDF726FCFDF7BCFCFDF71EFD63
:104C3000FDF7B8FDFDF77EFDFDF7D2FDFDF7B4FEF3
:104C4000FBF71CFDFEF726FF00F013F8FEF7F6F960
:104C5000012205490548FDF74BF900F04FFFFDF72C
:104C60001FFC00F067FFFEE7940000200C0200200C
:104C7000704710B5FDF7F0FABDE8104000F014B928
:104C80000D4A10B5911EA1F10804A01DFDF790FA80
:104C9000221DA11C2046FDF7A4FAFDF7BBFA03F084
:104CA000EBFA04F12C02E060111D101F00F030F847
:104CB000BDE81040FBF7FABCAA1D00202DE9F04129
:104CC000124C20F00101002594F8240010B10020BE
:104CD000BDE8F081A07A4FF0FF3668B10840277C2C
:104CE0002074884200D0354641B1012001F08CFC8F
:104CF00000F080FB38B127743046E9E7207D00B131
:104D0000012001F081FC2846E2E700009800002025
:104D10002DE9F74F8EB00CA902A8CDE900010BAB2D
:104D200003AA09A907A8FFF73BF9BDF80800C005C9
:104D30007ED5039803F0A0FA6FF01D04214603F01E
:104D4000CEFC8246049803F097FA214603F0C7FC94
:104D50008146059803F090FA214603F0C0FC804696
:104D6000069803F089FA214603F0B9FC05460121B3
:104D7000504603F0B4FC0646414603F0DDFA044613
:104D80004FF04041484603F0D7FA0746294603F062
:104D9000D3FA214603F0FEF803F0D0F8FEF7E4FA68
:104DA0004FF0663B5A463F4B02F0EEFD02F052FBDD
:104DB0000E9908600121404603F091FC41460090A5
:104DC00003F0BAFA04463846494603F0B5FA2146DC
:104DD00003F0B0FB4FF07E5103F0DCF803F0AEF8C7
:104DE00007460C463046494603F0A6FA06462946D1
:104DF000009803F0A1FA314603F0CCF803F09EF8D6
:104E00003A462346FEF7F8FC5A46264B02F0BCFD14
:104E100002F020FB0F9908602946084603F08CFA3F
:104E200007464146084603F087FA0646494600E031
:104E300035E0084603F080FA04465146084603F080
:104E40007BFA214603F0A6F8314603F073FB39469E
:104E500003F070FB03F072F806460C4629465046F4
:104E600003F06AFA05464146484603F065FA2946CA
:104E700003F090F8012103F032FC03F05FF83246B2
:104E80002346FEF7B9FC5A46064B02F07DFD02F0C0
:104E9000E1FA10990860002011B0BDE8F08F0220FF
:104EA000FAE7000066A64C4010B5FDF77FF800F069
:104EB000F1F808B10A2010BD782000F07FFD10F055
:104EC000FF0F01D0012010BD7820FFF7F7FE10F092
:104ED000FF0F01D0022010BD642000F02FFD10F064
:104EE000FF0F01D0032010BDFFF750F810F0FF0FA7
:104EF00001D0042010BD1448FFF7F6FDFFF706FAB5
:104F000010F0FF0F01D0052010BD40F27310FEF726
:104F100015FF10F0FF0F01D0062010BD6420FFF731
:104F20005DF910F0FF0F01D0072010BD01F02CFB40
:104F300008B1082010BD012000F026FC10F0FF0091
:104F4000F8D0092010BD0000C40000200D494A7AA5
:104F500042B1012A08D0022A0FD0032A0FD04FF005
:104F6000FF307047022200E004220270C97C11B1B8
:104F70001106C90D0170002070470822F5E71022C4
:104F8000F3E70000980000200F494A7A42B1012A55
:104F900009D0022A11D0032A12D04FF0FF307047F7
:104FA0004FF4804201E041F69C720280C97C11B14D
:104FB000C2F34E010180002070474FF48052F4E7A5
:104FC0004FF40062F1E70000980000200B49097AD5
:104FD00039B1012907D002290AD003290BD00021B9
:104FE00003E0FA2101E04FF4FA71018000207047DC
:104FF0004FF47A71F9E74FF4FA61F6E79800002070
:105000000A49097A41B1012908D002290AD00329A5
:105010000AD04FF0FF307047054900E005490160B4
:10502000002070470449FAE70449F8E79800002097
:105030000000034300008342333303423333834190
:105040000C49C97A072913D2DFE801F01204060AD5
:105050000C0E1000BC2100E062210180002070478E
:105060002A21FAE71421F8E70A21F6E70521F4E7F7
:105070000021F2E798000020054991F8242012B1A0
:105080004FF0FF307047C989018000207047000051
:10509000980000202DE9FC41464C80208DF800004E
:1050A00020686B460122817C60680078FDF7B9F9C1
:1050B0004FF0FF37002875D16420FBF7D9FC00259D
:1050C0008DF8005020686B460122817C6068007872
:1050D000FDF7A7F9002865D120686B460622817D7F
:1050E00060680078FDF710F900285BD19DF8050095
:1050F0009DF80310C007400F01F0010140EA410094
:105100009DF801104FF0010601F00101084304D0A1
:10511000012831D0022810D044E020686B460122DB
:10512000C17860680078FDF7EFF8D8BB9DF8000003
:1051300010F00F0036D004281ED0E574FF2004F8CC
:105140000A0F4FF6FF7104F8020C04F8010C6070AE
:10515000A180A0712072A67026766576E572A57290
:10516000E56025616561A576E576A5834FF4FA6073
:1051700000F046FBB0B901E0E674DFE7022000F082
:1051800061FA78B92A2000F0A3FB58B9322000F068
:10519000D5FB38B90020FFF791FD18B9002000F0C9
:1051A00085FA10B13846BDE8FC81002000F006FC0D
:1051B0000020F8E7980000202DE9FF4FDFF89480E9
:1051C000064685B098F8250015460F464FF0FF3982
:1051D000B0BBAFB3002420E0301B102800DD10204E
:1051E00080B283463A1901469246204600F042FCBE
:1051F00030BB6A465946204600F0D2F800BB504604
:105200005A466946FBF750F820B16FF0010009B02B
:10521000BDE8F08F04EB0B0084B2B442DCD3280A63
:105220008DF810008DF81150D8F80000444604ABFA
:10523000817ED8F8040002220078FDF7F2F808B168
:105240004846E4E7012084F825000898E08400201F
:10525000DDE70000980000202DE9F84305464FF0F7
:10526000FF39282844D80727284C00267DB1012083
:1052700000F0FCFA20208DF800004FF00108012D0D
:1052800017D0052D18D88DF8018005201FE00020CB
:1052900000F0ECFA8DF800608DF8017020686B4624
:1052A0000222817C60680078FDF7BBF800BB2675A0
:1052B00029E08DF80160E8E7142D04D802208DF86C
:1052C00001000A2003E003208DF80100142000F003
:1052D000FFFA9DF801006B4607EB80108DF8010086
:1052E00020680222817C60680078FDF79AF810B18E
:1052F0004846BDE8F8830820A072267384F814801D
:105300000020FFF7DBFC0020F3E7000098000020FE
:105310002DE9F843214C0646174694F824008946A7
:105320004FF0FF3890B3A07A80B320686B4602221A
:10533000817A60680078FCF7E7FF38BBBDF80000B1
:1053400045BAB54202D2002038701FE0606841883B
:10535000B5EB510F11D9216800786B46497C0122C9
:10536000FCF7D2FF90B99DF80000C00605D500F00B
:1053700041F86FF00100BDE8F8832068F2B24B46B7
:10538000C17A60680078FCF7BFFF08B14046F2E7D9
:10539000B5FBF6F0401E38700020ECE798000020C6
:1053A000F8B516000D464FF0FF371FD0104CA17A0C
:1053B000E1B1010A8DF80010C0B28DF80100411969
:1053C00060684289914211D8216800786B46097E55
:1053D0000222FDF726F848B92068EAB23346417D3B
:1053E00060680078FCF790FF002800D03846F8BDD0
:1053F00098000020F8B5564C4FF0FF36A07A0028F0
:105400007DD000258DF8005020686B460122C17BBD
:1054100060680078FDF705F8002870D120686B46B9
:105420000122417960680078FCF7FBFF002866D113
:1054300020686B460122017960680078FCF7F1FF73
:1054400000285CD194F82400E0B30C208DF8000013
:1054500020686B460122017960680078FCF7E1FF63
:10546000002872D13220FBF703FBC0208DF800002A
:10547000A07AC00702D0E0208DF8000020686B46BB
:105480000122017960680078FCF7CBFF00285CD12D
:10549000607C18B102208DF8000001E08DF800500A
:1054A00020686B460122C17B60680078FCF7B9FF79
:1054B00028BB8DF8005020686B4601224179606856
:1054C00000783EE0FFE704208DF8000020686B467E
:1054D0000122017960680078FCF7A3FF78B9A07C0D
:1054E00090B9A07AC0070FD05FF060008DF800007F
:1054F00020686B46012201796068007800E024E0B2
:10550000FCF78FFF08BB01E04020EFE73220FBF7FC
:10551000AFFA607C18B101208DF8000001E08DF831
:10552000005020686B460122C17B60680078FCF760
:1055300078FF50B92068064B01224179606810332A
:105540000078FCF76EFF002800D03046F8BD000060
:10555000980000202DE9F047394C82468AB094F833
:1055600024000F4620B1002000F00EF9012600E0D3
:10557000002607A8FFF72AFD06A8FFF7E7FC09A801
:10558000FFF75EFD08A8FFF777FD94F80A9094F8FE
:1055900010800025002239465046FFF7B1F810B1BF
:1055A0006D1C022DF6DB022D1AD00025012203A965
:1055B0006846FFF7A5F810B16D1C022DF6DB022D31
:1055C0000ED003A93846FDF78FFEC7B26946504694
:1055D000FFF720FA10F0FF0F4FF0000502D002E0B5
:1055E000002503E001250FB945F00205FF202072D8
:1055F0006072E0724FF6FF71E181A07220740120A9
:105600002073BDF81C0000F0FBF89DF8180000F0B6
:1056100019F8BDF8240000F05BF9BDF8200000F097
:105620008DF9484600F0CAF94046FFF747FB16B12E
:10563000012000F0A9F80AB02846BDE8F087000074
:105640009800002038B5184C4FF0FF35A17A19B3F7
:10565000022806D0042806D008280ED010281BD116
:105660000DE0002000E008208DF80000607A9DF831
:105670000010B0EBD10F04D005E01020F4E71820A3
:10568000F2E7002038BD20686B460122C1796068CE
:105690000078FCF7C6FE08B1284638BD9DF800002A
:1056A000C0086072EDE7000098000020F8B5354CA6
:1056B0000546A07CA84201D10020F8BD31484FF03A
:1056C000FF366B46D0E900104FF0010209790078EF
:1056D00035B3FCF719FE70BB9DF800006B4620F057
:1056E00020008DF8000020680122017960680078B0
:1056F000FCF797FEF8B90320FBF7BAF902208DF802
:10570000000094F8220078B382202BE020686B46DA
:105710000122017D60680078FCF783FE58B92EE015
:10572000FCF7F2FD38B9A07AC0079DF8000003D05D
:1057300040F0200002E00CE020F020008DF8000096
:1057400020686B460122017960680078FCF769FEE9
:1057500008B13046F8BD0320FBF78AF994F822001F
:1057600000B180208DF8000094F823000028CDD0EF
:105770009DF8000040F030008DF80000C6E7A574E9
:105780009AE700009800002038B51C4C94F82410CB
:1057900081421DD0002500B394F82500D0B100202F
:1057A00000F032FF0020FFF781FFE08C00F0C6F828
:1057B0008DF8005060686B46012200782321FCF7C9
:1057C00030FE012084F8240000F01EFFFFF712FED7
:1057D000002038BD4FF0FF3038BD002000F014FF2E
:1057E000207C8DF8000060686B4601220078232140
:1057F000FCF717FE84F82450E8E70000980000202A
:1058000038B5194C4FF0FF35A17A31B3FA2809D0D9
:10581000B0F5FA7F08D0B0F57A7F0FD0B0F5FA6F07
:105820001BD10DE0002000E008208DF80000207A58
:105830009DF80010B0EBD10F04D005E01020F4E784
:105840001820F2E7002038BD20686B4601228179DC
:1058500060680078FCF7E5FD08B1284638BD9DF882
:105860000000C0082072EDE79800002038B5174C02
:10587000054694F82300A84201D1002038BD0DB19F
:10588000302000E000208DF80000A07C28B19DF8B9
:10589000000040F002008DF8000094F8220028B1CA
:1058A0009DF8000040F080008DF8000020686B46F5
:1058B0000122017D60680078FCF7B3FD10B14FF064
:1058C000FF3038BD84F82350D7E70000980000204F
:1058D00038B5194C4FF0FF35A17A31B3BC2801D34C
:1058E000012010E0622801D302200CE02A2801D315
:1058F000032008E0142801D3042004E00A2801D37F
:10590000052000E006208DF80000E07A9DF80010E8
:10591000884201D1002038BD20686B460122817881
:1059200060680078FCF77DFD08B1284638BD9DF819
:105930000000E072EEE7000098000020F8B51E4D70
:1059400004464FF0FF37A87A48B395F8240030BBDF
:10595000287D4FF47A7648B164B1282C03D8E0B2A0
:10596000FFF77AFC26E00020FFF776FC042C05D236
:10597000042406E00020FFF76FFCF9E7B44200D9E9
:105980003446B6FBF4F0401E8DF8000028686B46E4
:105990000122417868680078FCF743FD08B1384679
:1059A000F8BD9DF80000401CB6FBF0F0E88140080F
:1059B000FFF78EFF0020F8BD98000020F8B50546DF
:1059C00010F0700F4FF0000601D0012004E015B177
:1059D0008DF8006002E040208DF80000244C6B46FA
:1059E00001222068817C60680078FCF71AFD4FF086
:1059F000FF3760BB9DF8000020F0400020738DF859
:105A00000060680602D404208DF80000A80605D4C2
:105A10009DF8000040F002008DF80000E80605D473
:105A20009DF8000040F001008DF80000280705D423
:105A30009DF8000040F038008DF8000020686B46AB
:105A40000122C17C60680078FCF7EBFC10B1A67203
:105A50003846F8BD25B1082D02D00020FFF706FF1B
:105A6000A57226753220FBF703F80020F8BD000070
:105A700098000020F8B516000D464FF0FF371FD0F4
:105A8000104CA17AE1B1010A8DF80010C0B28DF876
:105A90000100411960684289914211D8216800785B
:105AA0006B46097E0222FCF7BCFC48B92068EAB2CA
:105AB0003346417D60680078FCF7B3FC002800D0D5
:105AC0003846F8BD9800002010B5EFF3058149B9BC
:105AD000EFF3108131B908490968022905D1EFF3C4
